{
  "contractName": "CarBattle",
  "abi": [
    {
      "inputs": [],
      "stateMutability": "nonpayable",
      "type": "constructor"
    },
    {
      "anonymous": false,
      "inputs": [
        {
          "indexed": true,
          "internalType": "address",
          "name": "owner",
          "type": "address"
        },
        {
          "indexed": true,
          "internalType": "address",
          "name": "approved",
          "type": "address"
        },
        {
          "indexed": true,
          "internalType": "uint256",
          "name": "tokenId",
          "type": "uint256"
        }
      ],
      "name": "Approval",
      "type": "event"
    },
    {
      "anonymous": false,
      "inputs": [
        {
          "indexed": true,
          "internalType": "address",
          "name": "owner",
          "type": "address"
        },
        {
          "indexed": true,
          "internalType": "address",
          "name": "operator",
          "type": "address"
        },
        {
          "indexed": false,
          "internalType": "bool",
          "name": "approved",
          "type": "bool"
        }
      ],
      "name": "ApprovalForAll",
      "type": "event"
    },
    {
      "anonymous": false,
      "inputs": [
        {
          "indexed": true,
          "internalType": "address",
          "name": "from",
          "type": "address"
        },
        {
          "indexed": true,
          "internalType": "address",
          "name": "to",
          "type": "address"
        },
        {
          "indexed": true,
          "internalType": "uint256",
          "name": "tokenId",
          "type": "uint256"
        }
      ],
      "name": "Transfer",
      "type": "event"
    },
    {
      "inputs": [
        {
          "internalType": "address",
          "name": "to",
          "type": "address"
        },
        {
          "internalType": "uint256",
          "name": "tokenId",
          "type": "uint256"
        }
      ],
      "name": "approve",
      "outputs": [],
      "stateMutability": "nonpayable",
      "type": "function"
    },
    {
      "inputs": [
        {
          "internalType": "address",
          "name": "owner",
          "type": "address"
        }
      ],
      "name": "balanceOf",
      "outputs": [
        {
          "internalType": "uint256",
          "name": "",
          "type": "uint256"
        }
      ],
      "stateMutability": "view",
      "type": "function",
      "constant": true
    },
    {
      "inputs": [],
      "name": "baseURI",
      "outputs": [
        {
          "internalType": "string",
          "name": "",
          "type": "string"
        }
      ],
      "stateMutability": "view",
      "type": "function",
      "constant": true
    },
    {
      "inputs": [
        {
          "internalType": "uint256",
          "name": "",
          "type": "uint256"
        }
      ],
      "name": "battles",
      "outputs": [
        {
          "internalType": "uint256",
          "name": "index",
          "type": "uint256"
        },
        {
          "internalType": "address payable",
          "name": "p1",
          "type": "address"
        },
        {
          "internalType": "uint256",
          "name": "p1CarId",
          "type": "uint256"
        },
        {
          "internalType": "uint256",
          "name": "scoreToBeat",
          "type": "uint256"
        },
        {
          "internalType": "uint256",
          "name": "amount",
          "type": "uint256"
        },
        {
          "internalType": "address payable",
          "name": "p2",
          "type": "address"
        },
        {
          "internalType": "uint256",
          "name": "p2CarId",
          "type": "uint256"
        },
        {
          "internalType": "address",
          "name": "winner",
          "type": "address"
        },
        {
          "internalType": "bool",
          "name": "ended",
          "type": "bool"
        },
        {
          "internalType": "uint256",
          "name": "createdAt",
          "type": "uint256"
        }
      ],
      "stateMutability": "view",
      "type": "function",
      "constant": true
    },
    {
      "inputs": [
        {
          "internalType": "uint256",
          "name": "",
          "type": "uint256"
        }
      ],
      "name": "cars",
      "outputs": [
        {
          "internalType": "uint256",
          "name": "index",
          "type": "uint256"
        },
        {
          "internalType": "uint256",
          "name": "level",
          "type": "uint256"
        },
        {
          "internalType": "uint256",
          "name": "speed",
          "type": "uint256"
        }
      ],
      "stateMutability": "view",
      "type": "function",
      "constant": true
    },
    {
      "inputs": [
        {
          "internalType": "uint256",
          "name": "tokenId",
          "type": "uint256"
        }
      ],
      "name": "getApproved",
      "outputs": [
        {
          "internalType": "address",
          "name": "",
          "type": "address"
        }
      ],
      "stateMutability": "view",
      "type": "function",
      "constant": true
    },
    {
      "inputs": [
        {
          "internalType": "address",
          "name": "owner",
          "type": "address"
        },
        {
          "internalType": "address",
          "name": "operator",
          "type": "address"
        }
      ],
      "name": "isApprovedForAll",
      "outputs": [
        {
          "internalType": "bool",
          "name": "",
          "type": "bool"
        }
      ],
      "stateMutability": "view",
      "type": "function",
      "constant": true
    },
    {
      "inputs": [],
      "name": "name",
      "outputs": [
        {
          "internalType": "string",
          "name": "",
          "type": "string"
        }
      ],
      "stateMutability": "view",
      "type": "function",
      "constant": true
    },
    {
      "inputs": [],
      "name": "owner",
      "outputs": [
        {
          "internalType": "address",
          "name": "",
          "type": "address"
        }
      ],
      "stateMutability": "view",
      "type": "function",
      "constant": true
    },
    {
      "inputs": [
        {
          "internalType": "uint256",
          "name": "tokenId",
          "type": "uint256"
        }
      ],
      "name": "ownerOf",
      "outputs": [
        {
          "internalType": "address",
          "name": "",
          "type": "address"
        }
      ],
      "stateMutability": "view",
      "type": "function",
      "constant": true
    },
    {
      "inputs": [
        {
          "internalType": "address",
          "name": "from",
          "type": "address"
        },
        {
          "internalType": "address",
          "name": "to",
          "type": "address"
        },
        {
          "internalType": "uint256",
          "name": "tokenId",
          "type": "uint256"
        }
      ],
      "name": "safeTransferFrom",
      "outputs": [],
      "stateMutability": "nonpayable",
      "type": "function"
    },
    {
      "inputs": [
        {
          "internalType": "address",
          "name": "from",
          "type": "address"
        },
        {
          "internalType": "address",
          "name": "to",
          "type": "address"
        },
        {
          "internalType": "uint256",
          "name": "tokenId",
          "type": "uint256"
        },
        {
          "internalType": "bytes",
          "name": "_data",
          "type": "bytes"
        }
      ],
      "name": "safeTransferFrom",
      "outputs": [],
      "stateMutability": "nonpayable",
      "type": "function"
    },
    {
      "inputs": [
        {
          "internalType": "address",
          "name": "operator",
          "type": "address"
        },
        {
          "internalType": "bool",
          "name": "approved",
          "type": "bool"
        }
      ],
      "name": "setApprovalForAll",
      "outputs": [],
      "stateMutability": "nonpayable",
      "type": "function"
    },
    {
      "inputs": [
        {
          "internalType": "bytes4",
          "name": "interfaceId",
          "type": "bytes4"
        }
      ],
      "name": "supportsInterface",
      "outputs": [
        {
          "internalType": "bool",
          "name": "",
          "type": "bool"
        }
      ],
      "stateMutability": "view",
      "type": "function",
      "constant": true
    },
    {
      "inputs": [],
      "name": "symbol",
      "outputs": [
        {
          "internalType": "string",
          "name": "",
          "type": "string"
        }
      ],
      "stateMutability": "view",
      "type": "function",
      "constant": true
    },
    {
      "inputs": [
        {
          "internalType": "uint256",
          "name": "index",
          "type": "uint256"
        }
      ],
      "name": "tokenByIndex",
      "outputs": [
        {
          "internalType": "uint256",
          "name": "",
          "type": "uint256"
        }
      ],
      "stateMutability": "view",
      "type": "function",
      "constant": true
    },
    {
      "inputs": [
        {
          "internalType": "address",
          "name": "owner",
          "type": "address"
        },
        {
          "internalType": "uint256",
          "name": "index",
          "type": "uint256"
        }
      ],
      "name": "tokenOfOwnerByIndex",
      "outputs": [
        {
          "internalType": "uint256",
          "name": "",
          "type": "uint256"
        }
      ],
      "stateMutability": "view",
      "type": "function",
      "constant": true
    },
    {
      "inputs": [
        {
          "internalType": "uint256",
          "name": "tokenId",
          "type": "uint256"
        }
      ],
      "name": "tokenURI",
      "outputs": [
        {
          "internalType": "string",
          "name": "",
          "type": "string"
        }
      ],
      "stateMutability": "view",
      "type": "function",
      "constant": true
    },
    {
      "inputs": [],
      "name": "totalSupply",
      "outputs": [
        {
          "internalType": "uint256",
          "name": "",
          "type": "uint256"
        }
      ],
      "stateMutability": "view",
      "type": "function",
      "constant": true
    },
    {
      "inputs": [
        {
          "internalType": "address",
          "name": "from",
          "type": "address"
        },
        {
          "internalType": "address",
          "name": "to",
          "type": "address"
        },
        {
          "internalType": "uint256",
          "name": "tokenId",
          "type": "uint256"
        }
      ],
      "name": "transferFrom",
      "outputs": [],
      "stateMutability": "nonpayable",
      "type": "function"
    },
    {
      "inputs": [],
      "name": "mintCar",
      "outputs": [],
      "stateMutability": "nonpayable",
      "type": "function"
    },
    {
      "inputs": [
        {
          "internalType": "uint256",
          "name": "_p1CarId",
          "type": "uint256"
        },
        {
          "internalType": "uint256",
          "name": "_score",
          "type": "uint256"
        }
      ],
      "name": "createBattle",
      "outputs": [],
      "stateMutability": "payable",
      "type": "function",
      "payable": true
    },
    {
      "inputs": [
        {
          "internalType": "uint256",
          "name": "_battleId",
          "type": "uint256"
        },
        {
          "internalType": "uint256",
          "name": "_p2CarId",
          "type": "uint256"
        }
      ],
      "name": "acceptBattle",
      "outputs": [],
      "stateMutability": "payable",
      "type": "function",
      "payable": true
    },
    {
      "inputs": [
        {
          "internalType": "uint256",
          "name": "_battleId",
          "type": "uint256"
        },
        {
          "internalType": "uint256",
          "name": "_score",
          "type": "uint256"
        }
      ],
      "name": "endBattle",
      "outputs": [],
      "stateMutability": "nonpayable",
      "type": "function"
    },
    {
      "inputs": [
        {
          "internalType": "uint256",
          "name": "_battleId",
          "type": "uint256"
        }
      ],
      "name": "cancelBattle",
      "outputs": [],
      "stateMutability": "nonpayable",
      "type": "function"
    },
    {
      "inputs": [],
      "name": "getBattlesCount",
      "outputs": [
        {
          "internalType": "uint256",
          "name": "",
          "type": "uint256"
        }
      ],
      "stateMutability": "view",
      "type": "function",
      "constant": true
    }
  ],
  "bytecode": "0x60806040523480156200001157600080fd5b506040518060400160405280600381526020017f43617200000000000000000000000000000000000000000000000000000000008152506040518060400160405280600381526020017f4341520000000000000000000000000000000000000000000000000000000000815250620000966301ffc9a760e01b6200015960201b60201c565b8160069080519060200190620000ae92919062000262565b508060079080519060200190620000c792919062000262565b50620000e06380ac58cd60e01b6200015960201b60201c565b620000f8635b5e139f60e01b6200015960201b60201c565b6200011063780e9d6360e01b6200015960201b60201c565b505033600c60006101000a81548173ffffffffffffffffffffffffffffffffffffffff021916908373ffffffffffffffffffffffffffffffffffffffff16021790555062000308565b63ffffffff60e01b817bffffffffffffffffffffffffffffffffffffffffffffffffffffffff19161415620001f6576040517f08c379a000000000000000000000000000000000000000000000000000000000815260040180806020018281038252601c8152602001807f4552433136353a20696e76616c696420696e746572666163652069640000000081525060200191505060405180910390fd5b6001600080837bffffffffffffffffffffffffffffffffffffffffffffffffffffffff19167bffffffffffffffffffffffffffffffffffffffffffffffffffffffff1916815260200190815260200160002060006101000a81548160ff02191690831515021790555050565b828054600181600116156101000203166002900490600052602060002090601f016020900481019282601f10620002a557805160ff1916838001178555620002d6565b82800160010185558215620002d6579182015b82811115620002d5578251825591602001919060010190620002b8565b5b509050620002e59190620002e9565b5090565b5b8082111562000304576000816000905550600101620002ea565b5090565b6136f380620003186000396000f3fe6080604052600436106101815760003560e01c80636c0360eb116100d1578063a22cb4651161008a578063df73c49f11610064578063df73c49f14610afa578063e81539ca14610b32578063e985e9c514610b77578063f7746e3614610bfe57610181565b8063a22cb465146108d7578063b88d4fde14610934578063c87b56dd14610a4657610181565b80636c0360eb146106ae57806370a082311461073e57806374fd8733146107a35780638da5cb5b146107db57806395d89b411461081c5780639cc429dc146108ac57610181565b80632f745c591161013e5780634c4c447e116101185780634c4c447e146104ed5780634f6ccce714610528578063606d2e96146105775780636352211e1461064957610181565b80632f745c59146103ec5780633a7bb4b21461045b57806342842e0e1461047257610181565b806301ffc9a71461018657806306fdde03146101f6578063081812fc14610286578063095ea7b3146102eb57806318160ddd1461034657806323b872dd14610371575b600080fd5b34801561019257600080fd5b506101de600480360360208110156101a957600080fd5b8101908080357bffffffffffffffffffffffffffffffffffffffffffffffffffffffff19169060200190929190505050610c5b565b60405180821515815260200191505060405180910390f35b34801561020257600080fd5b5061020b610cc2565b6040518080602001828103825283818151815260200191508051906020019080838360005b8381101561024b578082015181840152602081019050610230565b50505050905090810190601f1680156102785780820380516001836020036101000a031916815260200191505b509250505060405180910390f35b34801561029257600080fd5b506102bf600480360360208110156102a957600080fd5b8101908080359060200190929190505050610d64565b604051808273ffffffffffffffffffffffffffffffffffffffff16815260200191505060405180910390f35b3480156102f757600080fd5b506103446004803603604081101561030e57600080fd5b81019080803573ffffffffffffffffffffffffffffffffffffffff16906020019092919080359060200190929190505050610dff565b005b34801561035257600080fd5b5061035b610f43565b6040518082815260200191505060405180910390f35b34801561037d57600080fd5b506103ea6004803603606081101561039457600080fd5b81019080803573ffffffffffffffffffffffffffffffffffffffff169060200190929190803573ffffffffffffffffffffffffffffffffffffffff16906020019092919080359060200190929190505050610f54565b005b3480156103f857600080fd5b506104456004803603604081101561040f57600080fd5b81019080803573ffffffffffffffffffffffffffffffffffffffff16906020019092919080359060200190929190505050610fca565b6040518082815260200191505060405180910390f35b34801561046757600080fd5b50610470611025565b005b34801561047e57600080fd5b506104eb6004803603606081101561049557600080fd5b81019080803573ffffffffffffffffffffffffffffffffffffffff169060200190929190803573ffffffffffffffffffffffffffffffffffffffff169060200190929190803590602001909291905050506110b9565b005b3480156104f957600080fd5b506105266004803603602081101561051057600080fd5b81019080803590602001909291905050506110d9565b005b34801561053457600080fd5b506105616004803603602081101561054b57600080fd5b81019080803590602001909291905050506111b7565b6040518082815260200191505060405180910390f35b34801561058357600080fd5b506105b06004803603602081101561059a57600080fd5b81019080803590602001909291905050506111da565b604051808b81526020018a73ffffffffffffffffffffffffffffffffffffffff1681526020018981526020018881526020018781526020018673ffffffffffffffffffffffffffffffffffffffff1681526020018581526020018473ffffffffffffffffffffffffffffffffffffffff16815260200183151581526020018281526020019a505050505050505050505060405180910390f35b34801561065557600080fd5b506106826004803603602081101561066c57600080fd5b81019080803590602001909291905050506112a8565b604051808273ffffffffffffffffffffffffffffffffffffffff16815260200191505060405180910390f35b3480156106ba57600080fd5b506106c36112df565b6040518080602001828103825283818151815260200191508051906020019080838360005b838110156107035780820151818401526020810190506106e8565b50505050905090810190601f1680156107305780820380516001836020036101000a031916815260200191505b509250505060405180910390f35b34801561074a57600080fd5b5061078d6004803603602081101561076157600080fd5b81019080803573ffffffffffffffffffffffffffffffffffffffff169060200190929190505050611381565b6040518082815260200191505060405180910390f35b6107d9600480360360408110156107b957600080fd5b810190808035906020019092919080359060200190929190505050611456565b005b3480156107e757600080fd5b506107f0611530565b604051808273ffffffffffffffffffffffffffffffffffffffff16815260200191505060405180910390f35b34801561082857600080fd5b50610831611556565b6040518080602001828103825283818151815260200191508051906020019080838360005b83811015610871578082015181840152602081019050610856565b50505050905090810190601f16801561089e5780820380516001836020036101000a031916815260200191505b509250505060405180910390f35b3480156108b857600080fd5b506108c16115f8565b6040518082815260200191505060405180910390f35b3480156108e357600080fd5b50610932600480360360408110156108fa57600080fd5b81019080803573ffffffffffffffffffffffffffffffffffffffff169060200190929190803515159060200190929190505050611605565b005b34801561094057600080fd5b50610a446004803603608081101561095757600080fd5b81019080803573ffffffffffffffffffffffffffffffffffffffff169060200190929190803573ffffffffffffffffffffffffffffffffffffffff16906020019092919080359060200190929190803590602001906401000000008111156109be57600080fd5b8201836020820111156109d057600080fd5b803590602001918460018302840111640100000000831117156109f257600080fd5b91908080601f016020809104026020016040519081016040528093929190818152602001838380828437600081840152601f19601f8201169050808301925050505050505091929192905050506117bb565b005b348015610a5257600080fd5b50610a7f60048036036020811015610a6957600080fd5b8101908080359060200190929190505050611833565b6040518080602001828103825283818151815260200191508051906020019080838360005b83811015610abf578082015181840152602081019050610aa4565b50505050905090810190601f168015610aec5780820380516001836020036101000a031916815260200191505b509250505060405180910390f35b610b3060048036036040811015610b1057600080fd5b810190808035906020019092919080359060200190929190505050611b04565b005b348015610b3e57600080fd5b50610b7560048036036040811015610b5557600080fd5b810190808035906020019092919080359060200190929190505050611d4e565b005b348015610b8357600080fd5b50610be660048036036040811015610b9a57600080fd5b81019080803573ffffffffffffffffffffffffffffffffffffffff169060200190929190803573ffffffffffffffffffffffffffffffffffffffff16906020019092919050505061210d565b60405180821515815260200191505060405180910390f35b348015610c0a57600080fd5b50610c3760048036036020811015610c2157600080fd5b81019080803590602001909291905050506121a1565b60405180848152602001838152602001828152602001935050505060405180910390f35b6000806000837bffffffffffffffffffffffffffffffffffffffffffffffffffffffff19167bffffffffffffffffffffffffffffffffffffffffffffffffffffffff1916815260200190815260200160002060009054906101000a900460ff169050919050565b606060068054600181600116156101000203166002900480601f016020809104026020016040519081016040528092919081815260200182805460018160011615610100020316600290048015610d5a5780601f10610d2f57610100808354040283529160200191610d5a565b820191906000526020600020905b815481529060010190602001808311610d3d57829003601f168201915b5050505050905090565b6000610d6f826121d8565b610dc4576040517f08c379a000000000000000000000000000000000000000000000000000000000815260040180806020018281038252602c8152602001806135e8602c913960400191505060405180910390fd5b6004600083815260200190815260200160002060009054906101000a900473ffffffffffffffffffffffffffffffffffffffff169050919050565b6000610e0a826112a8565b90508073ffffffffffffffffffffffffffffffffffffffff168373ffffffffffffffffffffffffffffffffffffffff161415610e91576040517f08c379a000000000000000000000000000000000000000000000000000000000815260040180806020018281038252602181526020018061366c6021913960400191505060405180910390fd5b8073ffffffffffffffffffffffffffffffffffffffff16610eb06121f5565b73ffffffffffffffffffffffffffffffffffffffff161480610edf5750610ede81610ed96121f5565b61210d565b5b610f34576040517f08c379a000000000000000000000000000000000000000000000000000000000815260040180806020018281038252603881526020018061353b6038913960400191505060405180910390fd5b610f3e83836121fd565b505050565b6000610f4f60026122b6565b905090565b610f65610f5f6121f5565b826122cb565b610fba576040517f08c379a000000000000000000000000000000000000000000000000000000000815260040180806020018281038252603181526020018061368d6031913960400191505060405180910390fd5b610fc58383836123bf565b505050565b600061101d82600160008673ffffffffffffffffffffffffffffffffffffffff1673ffffffffffffffffffffffffffffffffffffffff16815260200190815260200160002061260290919063ffffffff16565b905092915050565b600061103033611381565b1461103a57600080fd5b6000600a805490509050600a6040518060600160405280838152602001600181526020016009815250908060018154018082558091505060019003906000526020600020906003020160009091909190915060008201518160000155602082015181600101556040820151816002015550506110b6338261261c565b50565b6110d4838383604051806020016040528060008152506117bb565b505050565b62015180600b82815481106110ea57fe5b90600052602060002090600902016008015401421161110857600080fd5b6000600b828154811061111757fe5b906000526020600020906009020190508060010160009054906101000a900473ffffffffffffffffffffffffffffffffffffffff1673ffffffffffffffffffffffffffffffffffffffff166108fc82600401549081150290604051600060405180830381858888f19350505050158015611195573d6000803e3d6000fd5b5060018160070160146101000a81548160ff0219169083151502179055505050565b6000806111ce83600261281090919063ffffffff16565b50905080915050919050565b600b81815481106111e757fe5b90600052602060002090600902016000915090508060000154908060010160009054906101000a900473ffffffffffffffffffffffffffffffffffffffff16908060020154908060030154908060040154908060050160009054906101000a900473ffffffffffffffffffffffffffffffffffffffff16908060060154908060070160009054906101000a900473ffffffffffffffffffffffffffffffffffffffff16908060070160149054906101000a900460ff1690806008015490508a565b60006112d88260405180606001604052806029815260200161359d60299139600261283c9092919063ffffffff16565b9050919050565b606060098054600181600116156101000203166002900480601f0160208091040260200160405190810160405280929190818152602001828054600181600116156101000203166002900480156113775780601f1061134c57610100808354040283529160200191611377565b820191906000526020600020905b81548152906001019060200180831161135a57829003601f168201915b5050505050905090565b60008073ffffffffffffffffffffffffffffffffffffffff168273ffffffffffffffffffffffffffffffffffffffff161415611408576040517f08c379a000000000000000000000000000000000000000000000000000000000815260040180806020018281038252602a815260200180613573602a913960400191505060405180910390fd5b61144f600160008473ffffffffffffffffffffffffffffffffffffffff1673ffffffffffffffffffffffffffffffffffffffff16815260200190815260200160002061285b565b9050919050565b34600b838154811061146457fe5b9060005260206000209060090201600401541461148057600080fd5b3373ffffffffffffffffffffffffffffffffffffffff166114a0826112a8565b73ffffffffffffffffffffffffffffffffffffffff16146114c057600080fd5b6000600b83815481106114cf57fe5b90600052602060002090600902019050338160050160006101000a81548173ffffffffffffffffffffffffffffffffffffffff021916908373ffffffffffffffffffffffffffffffffffffffff160217905550818160060181905550505050565b600c60009054906101000a900473ffffffffffffffffffffffffffffffffffffffff1681565b606060078054600181600116156101000203166002900480601f0160208091040260200160405190810160405280929190818152602001828054600181600116156101000203166002900480156115ee5780601f106115c3576101008083540402835291602001916115ee565b820191906000526020600020905b8154815290600101906020018083116115d157829003601f168201915b5050505050905090565b6000600b80549050905090565b61160d6121f5565b73ffffffffffffffffffffffffffffffffffffffff168273ffffffffffffffffffffffffffffffffffffffff1614156116ae576040517f08c379a00000000000000000000000000000000000000000000000000000000081526004018080602001828103825260198152602001807f4552433732313a20617070726f766520746f2063616c6c65720000000000000081525060200191505060405180910390fd5b80600560006116bb6121f5565b73ffffffffffffffffffffffffffffffffffffffff1673ffffffffffffffffffffffffffffffffffffffff16815260200190815260200160002060008473ffffffffffffffffffffffffffffffffffffffff1673ffffffffffffffffffffffffffffffffffffffff16815260200190815260200160002060006101000a81548160ff0219169083151502179055508173ffffffffffffffffffffffffffffffffffffffff166117686121f5565b73ffffffffffffffffffffffffffffffffffffffff167f17307eab39ab6107e8899845ad3d59bd9653f200f220920489ca2b5937696c318360405180821515815260200191505060405180910390a35050565b6117cc6117c66121f5565b836122cb565b611821576040517f08c379a000000000000000000000000000000000000000000000000000000000815260040180806020018281038252603181526020018061368d6031913960400191505060405180910390fd5b61182d84848484612870565b50505050565b606061183e826121d8565b611893576040517f08c379a000000000000000000000000000000000000000000000000000000000815260040180806020018281038252602f81526020018061363d602f913960400191505060405180910390fd5b6060600860008481526020019081526020016000208054600181600116156101000203166002900480601f01602080910402602001604051908101604052809291908181526020018280546001816001161561010002031660029004801561193c5780601f106119115761010080835404028352916020019161193c565b820191906000526020600020905b81548152906001019060200180831161191f57829003601f168201915b50505050509050606061194d6112df565b9050600081511415611963578192505050611aff565b600082511115611a345780826040516020018083805190602001908083835b602083106119a55780518252602082019150602081019050602083039250611982565b6001836020036101000a03801982511681845116808217855250505050505090500182805190602001908083835b602083106119f657805182526020820191506020810190506020830392506119d3565b6001836020036101000a0380198251168184511680821785525050505050509050019250505060405160208183030381529060405292505050611aff565b80611a3e856128e2565b6040516020018083805190602001908083835b60208310611a745780518252602082019150602081019050602083039250611a51565b6001836020036101000a03801982511681845116808217855250505050505090500182805190602001908083835b60208310611ac55780518252602082019150602081019050602083039250611aa2565b6001836020036101000a03801982511681845116808217855250505050505090500192505050604051602081830303815290604052925050505b919050565b60003411611b1157600080fd5b3373ffffffffffffffffffffffffffffffffffffffff16611b31836112a8565b73ffffffffffffffffffffffffffffffffffffffff1614611b5157600080fd5b6000600b805490509050600b6040518061014001604052808381526020013373ffffffffffffffffffffffffffffffffffffffff168152602001858152602001848152602001348152602001600073ffffffffffffffffffffffffffffffffffffffff16815260200160008152602001600073ffffffffffffffffffffffffffffffffffffffff1681526020016000151581526020014281525090806001815401808255809150506001900390600052602060002090600902016000909190919091506000820151816000015560208201518160010160006101000a81548173ffffffffffffffffffffffffffffffffffffffff021916908373ffffffffffffffffffffffffffffffffffffffff16021790555060408201518160020155606082015181600301556080820151816004015560a08201518160050160006101000a81548173ffffffffffffffffffffffffffffffffffffffff021916908373ffffffffffffffffffffffffffffffffffffffff16021790555060c0820151816006015560e08201518160070160006101000a81548173ffffffffffffffffffffffffffffffffffffffff021916908373ffffffffffffffffffffffffffffffffffffffff1602179055506101008201518160070160146101000a81548160ff02191690831515021790555061012082015181600801555050505050565b600b8281548110611d5b57fe5b906000526020600020906009020160050160009054906101000a900473ffffffffffffffffffffffffffffffffffffffff1673ffffffffffffffffffffffffffffffffffffffff163373ffffffffffffffffffffffffffffffffffffffff1614611dc457600080fd5b6000600b8381548110611dd357fe5b906000526020600020906009020190508060030154821015611ef7578060050160009054906101000a900473ffffffffffffffffffffffffffffffffffffffff168160070160006101000a81548173ffffffffffffffffffffffffffffffffffffffff021916908373ffffffffffffffffffffffffffffffffffffffff160217905550611e638160060154612a29565b8060050160009054906101000a900473ffffffffffffffffffffffffffffffffffffffff1673ffffffffffffffffffffffffffffffffffffffff166108fc60028360040154029081150290604051600060405180830381858888f19350505050158015611ed4573d6000803e3d6000fd5b5060018160070160146101000a81548160ff021916908315150217905550612108565b806003015482111561200b578060010160009054906101000a900473ffffffffffffffffffffffffffffffffffffffff168160070160006101000a81548173ffffffffffffffffffffffffffffffffffffffff021916908373ffffffffffffffffffffffffffffffffffffffff160217905550611f778160020154612a29565b8060010160009054906101000a900473ffffffffffffffffffffffffffffffffffffffff1673ffffffffffffffffffffffffffffffffffffffff166108fc60028360040154029081150290604051600060405180830381858888f19350505050158015611fe8573d6000803e3d6000fd5b5060018160070160146101000a81548160ff021916908315150217905550612107565b8060010160009054906101000a900473ffffffffffffffffffffffffffffffffffffffff1673ffffffffffffffffffffffffffffffffffffffff166108fc82600401549081150290604051600060405180830381858888f19350505050158015612079573d6000803e3d6000fd5b508060050160009054906101000a900473ffffffffffffffffffffffffffffffffffffffff1673ffffffffffffffffffffffffffffffffffffffff166108fc82600401549081150290604051600060405180830381858888f193505050501580156120e8573d6000803e3d6000fd5b5060018160070160146101000a81548160ff0219169083151502179055505b5b505050565b6000600560008473ffffffffffffffffffffffffffffffffffffffff1673ffffffffffffffffffffffffffffffffffffffff16815260200190815260200160002060008373ffffffffffffffffffffffffffffffffffffffff1673ffffffffffffffffffffffffffffffffffffffff16815260200190815260200160002060009054906101000a900460ff16905092915050565b600a81815481106121ae57fe5b90600052602060002090600302016000915090508060000154908060010154908060020154905083565b60006121ee826002612a8190919063ffffffff16565b9050919050565b600033905090565b816004600083815260200190815260200160002060006101000a81548173ffffffffffffffffffffffffffffffffffffffff021916908373ffffffffffffffffffffffffffffffffffffffff160217905550808273ffffffffffffffffffffffffffffffffffffffff16612270836112a8565b73ffffffffffffffffffffffffffffffffffffffff167f8c5be1e5ebec7d5bd14f71427d1e84f3dd0314c0f7b2291e5b200ac8c7c3b92560405160405180910390a45050565b60006122c482600001612a9b565b9050919050565b60006122d6826121d8565b61232b576040517f08c379a000000000000000000000000000000000000000000000000000000000815260040180806020018281038252602c81526020018061350f602c913960400191505060405180910390fd5b6000612336836112a8565b90508073ffffffffffffffffffffffffffffffffffffffff168473ffffffffffffffffffffffffffffffffffffffff1614806123a557508373ffffffffffffffffffffffffffffffffffffffff1661238d84610d64565b73ffffffffffffffffffffffffffffffffffffffff16145b806123b657506123b5818561210d565b5b91505092915050565b8273ffffffffffffffffffffffffffffffffffffffff166123df826112a8565b73ffffffffffffffffffffffffffffffffffffffff161461244b576040517f08c379a00000000000000000000000000000000000000000000000000000000081526004018080602001828103825260298152602001806136146029913960400191505060405180910390fd5b600073ffffffffffffffffffffffffffffffffffffffff168273ffffffffffffffffffffffffffffffffffffffff1614156124d1576040517f08c379a00000000000000000000000000000000000000000000000000000000081526004018080602001828103825260248152602001806134c56024913960400191505060405180910390fd5b6124dc838383612aac565b6124e76000826121fd565b61253881600160008673ffffffffffffffffffffffffffffffffffffffff1673ffffffffffffffffffffffffffffffffffffffff168152602001908152602001600020612ab190919063ffffffff16565b5061258a81600160008573ffffffffffffffffffffffffffffffffffffffff1673ffffffffffffffffffffffffffffffffffffffff168152602001908152602001600020612acb90919063ffffffff16565b506125a181836002612ae59092919063ffffffff16565b50808273ffffffffffffffffffffffffffffffffffffffff168473ffffffffffffffffffffffffffffffffffffffff167fddf252ad1be2c89b69c2b068fc378daa952ba7f163c4a11628f55a4df523b3ef60405160405180910390a4505050565b60006126118360000183612b1a565b60001c905092915050565b600073ffffffffffffffffffffffffffffffffffffffff168273ffffffffffffffffffffffffffffffffffffffff1614156126bf576040517f08c379a00000000000000000000000000000000000000000000000000000000081526004018080602001828103825260208152602001807f4552433732313a206d696e7420746f20746865207a65726f206164647265737381525060200191505060405180910390fd5b6126c8816121d8565b1561273b576040517f08c379a000000000000000000000000000000000000000000000000000000000815260040180806020018281038252601c8152602001807f4552433732313a20746f6b656e20616c7265616479206d696e7465640000000081525060200191505060405180910390fd5b61274760008383612aac565b61279881600160008573ffffffffffffffffffffffffffffffffffffffff1673ffffffffffffffffffffffffffffffffffffffff168152602001908152602001600020612acb90919063ffffffff16565b506127af81836002612ae59092919063ffffffff16565b50808273ffffffffffffffffffffffffffffffffffffffff16600073ffffffffffffffffffffffffffffffffffffffff167fddf252ad1be2c89b69c2b068fc378daa952ba7f163c4a11628f55a4df523b3ef60405160405180910390a45050565b6000806000806128238660000186612b9d565b915091508160001c8160001c9350935050509250929050565b600061284f846000018460001b84612c36565b60001c90509392505050565b600061286982600001612d2c565b9050919050565b61287b8484846123bf565b61288784848484612d3d565b6128dc576040517f08c379a00000000000000000000000000000000000000000000000000000000081526004018080602001828103825260328152602001806134936032913960400191505060405180910390fd5b50505050565b6060600082141561292a576040518060400160405280600181526020017f30000000000000000000000000000000000000000000000000000000000000008152509050612a24565b600082905060005b60008214612954578080600101915050600a828161294c57fe5b049150612932565b60608167ffffffffffffffff8111801561296d57600080fd5b506040519080825280601f01601f1916602001820160405280156129a05781602001600182028036833780820191505090505b50905060006001830390508593505b60008414612a1c57600a84816129c157fe5b0660300160f81b828280600190039350815181106129db57fe5b60200101907effffffffffffffffffffffffffffffffffffffffffffffffffffffffffffff1916908160001a905350600a8481612a1457fe5b0493506129af565b819450505050505b919050565b6000600a8281548110612a3857fe5b90600052602060002090600302019050600781600101541015612a7d578060010160008154809291906001019190505550600760028260010154020181600201819055505b5050565b6000612a93836000018360001b612f56565b905092915050565b600081600001805490509050919050565b505050565b6000612ac3836000018360001b612f79565b905092915050565b6000612add836000018360001b613061565b905092915050565b6000612b11846000018460001b8473ffffffffffffffffffffffffffffffffffffffff1660001b6130d1565b90509392505050565b600081836000018054905011612b7b576040517f08c379a00000000000000000000000000000000000000000000000000000000081526004018080602001828103825260228152602001806134716022913960400191505060405180910390fd5b826000018281548110612b8a57fe5b9060005260206000200154905092915050565b60008082846000018054905011612bff576040517f08c379a00000000000000000000000000000000000000000000000000000000081526004018080602001828103825260228152602001806135c66022913960400191505060405180910390fd5b6000846000018481548110612c1057fe5b906000526020600020906002020190508060000154816001015492509250509250929050565b60008084600101600085815260200190815260200160002054905060008114158390612cfd576040517f08c379a00000000000000000000000000000000000000000000000000000000081526004018080602001828103825283818151815260200191508051906020019080838360005b83811015612cc2578082015181840152602081019050612ca7565b50505050905090810190601f168015612cef5780820380516001836020036101000a031916815260200191505b509250505060405180910390fd5b50846000016001820381548110612d1057fe5b9060005260206000209060020201600101549150509392505050565b600081600001805490509050919050565b6000612d5e8473ffffffffffffffffffffffffffffffffffffffff166131ad565b612d6b5760019050612f4e565b6060612ed563150b7a0260e01b612d806121f5565b888787604051602401808573ffffffffffffffffffffffffffffffffffffffff1681526020018473ffffffffffffffffffffffffffffffffffffffff16815260200183815260200180602001828103825283818151815260200191508051906020019080838360005b83811015612e04578082015181840152602081019050612de9565b50505050905090810190601f168015612e315780820380516001836020036101000a031916815260200191505b5095505050505050604051602081830303815290604052907bffffffffffffffffffffffffffffffffffffffffffffffffffffffff19166020820180517bffffffffffffffffffffffffffffffffffffffffffffffffffffffff8381831617835250505050604051806060016040528060328152602001613493603291398773ffffffffffffffffffffffffffffffffffffffff166131c09092919063ffffffff16565b90506000818060200190516020811015612eee57600080fd5b8101908080519060200190929190505050905063150b7a0260e01b7bffffffffffffffffffffffffffffffffffffffffffffffffffffffff1916817bffffffffffffffffffffffffffffffffffffffffffffffffffffffff191614925050505b949350505050565b600080836001016000848152602001908152602001600020541415905092915050565b600080836001016000848152602001908152602001600020549050600081146130555760006001820390506000600186600001805490500390506000866000018281548110612fc457fe5b9060005260206000200154905080876000018481548110612fe157fe5b906000526020600020018190555060018301876001016000838152602001908152602001600020819055508660000180548061301957fe5b6001900381819060005260206000200160009055905586600101600087815260200190815260200160002060009055600194505050505061305b565b60009150505b92915050565b600061306d83836131d8565b6130c65782600001829080600181540180825580915050600190039060005260206000200160009091909190915055826000018054905083600101600084815260200190815260200160002081905550600190506130cb565b600090505b92915050565b6000808460010160008581526020019081526020016000205490506000811415613178578460000160405180604001604052808681526020018581525090806001815401808255809150506001900390600052602060002090600202016000909190919091506000820151816000015560208201518160010155505084600001805490508560010160008681526020019081526020016000208190555060019150506131a6565b8285600001600183038154811061318b57fe5b90600052602060002090600202016001018190555060009150505b9392505050565b600080823b905060008111915050919050565b60606131cf84846000856131fb565b90509392505050565b600080836001016000848152602001908152602001600020541415905092915050565b606082471015613256576040517f08c379a00000000000000000000000000000000000000000000000000000000081526004018080602001828103825260268152602001806134e96026913960400191505060405180910390fd5b61325f856131ad565b6132d1576040517f08c379a000000000000000000000000000000000000000000000000000000000815260040180806020018281038252601d8152602001807f416464726573733a2063616c6c20746f206e6f6e2d636f6e747261637400000081525060200191505060405180910390fd5b600060608673ffffffffffffffffffffffffffffffffffffffff1685876040518082805190602001908083835b6020831061332157805182526020820191506020810190506020830392506132fe565b6001836020036101000a03801982511681845116808217855250505050505090500191505060006040518083038185875af1925050503d8060008114613383576040519150601f19603f3d011682016040523d82523d6000602084013e613388565b606091505b50915091506133988282866133a4565b92505050949350505050565b606083156133b457829050613469565b6000835111156133c75782518084602001fd5b816040517f08c379a00000000000000000000000000000000000000000000000000000000081526004018080602001828103825283818151815260200191508051906020019080838360005b8381101561342e578082015181840152602081019050613413565b50505050905090810190601f16801561345b5780820380516001836020036101000a031916815260200191505b509250505060405180910390fd5b939250505056fe456e756d657261626c655365743a20696e646578206f7574206f6620626f756e64734552433732313a207472616e7366657220746f206e6f6e20455243373231526563656976657220696d706c656d656e7465724552433732313a207472616e7366657220746f20746865207a65726f2061646472657373416464726573733a20696e73756666696369656e742062616c616e636520666f722063616c6c4552433732313a206f70657261746f7220717565727920666f72206e6f6e6578697374656e7420746f6b656e4552433732313a20617070726f76652063616c6c6572206973206e6f74206f776e6572206e6f7220617070726f76656420666f7220616c6c4552433732313a2062616c616e636520717565727920666f7220746865207a65726f20616464726573734552433732313a206f776e657220717565727920666f72206e6f6e6578697374656e7420746f6b656e456e756d657261626c654d61703a20696e646578206f7574206f6620626f756e64734552433732313a20617070726f76656420717565727920666f72206e6f6e6578697374656e7420746f6b656e4552433732313a207472616e73666572206f6620746f6b656e2074686174206973206e6f74206f776e4552433732314d657461646174613a2055524920717565727920666f72206e6f6e6578697374656e7420746f6b656e4552433732313a20617070726f76616c20746f2063757272656e74206f776e65724552433732313a207472616e736665722063616c6c6572206973206e6f74206f776e6572206e6f7220617070726f766564a2646970667358221220fd612031b2cfaaf07dfa744eb0c1999e7edfaa9ccc33bfeb4daddc59fec4047f64736f6c634300060c0033",
  "immutableReferences": {},
  "source": "pragma solidity ^0.6.2;\n\nimport \"../node_modules/@openzeppelin/contracts/token/ERC721/ERC721.sol\";\n\ncontract CarBattle is ERC721 {\n    \n    struct Car {\n        uint index;\n        uint level;\n        uint speed;\n    }\n    \n    struct Battle {\n        uint index;\n        address payable p1;\n        uint p1CarId;\n        uint scoreToBeat;     //Unit: 100*second\n        uint amount;\n        address payable p2;\n        uint p2CarId;\n        address winner;\n        bool ended;\n        uint createdAt;\n    }\n    \n    Car[] public cars;\n    Battle[] public battles;\n    address public owner;\n    \n    constructor () ERC721(\"Car\", \"CAR\") public {\n        owner = msg.sender;\n    }\n    \n    function mintCar() public {\n        require(balanceOf(msg.sender) == 0);\n        uint id = cars.length;\n        cars.push(Car(id, 1, 9));\n        _mint(msg.sender, id);\n    }\n    \n    function createBattle (uint _p1CarId, uint _score) public payable {\n        require(msg.value > 0);\n        require(ownerOf(_p1CarId) == msg.sender);\n        uint id = battles.length;\n        battles.push(Battle(id, msg.sender, _p1CarId, _score, msg.value, address(0), 0, address(0), false, now));\n    }\n    \n    function acceptBattle (uint _battleId, uint _p2CarId) public payable {\n        // require(msg.sender != battles[_battleId].p1);\n        require(battles[_battleId].amount == msg.value);\n        require(ownerOf(_p2CarId) == msg.sender);\n        \n        Battle storage b = battles[_battleId];\n        b.p2 = msg.sender;\n        b.p2CarId = _p2CarId;\n    }\n    \n    function endBattle (uint _battleId, uint _score) public {\n        require(msg.sender == battles[_battleId].p2);\n        Battle storage b = battles[_battleId];\n        if(_score < b.scoreToBeat) {\n            b.winner = b.p2;\n            upgradeLevel(b.p2CarId);\n            b.p2.transfer(b.amount * 2);\n            b.ended = true;\n        } else if (_score > b.scoreToBeat) {\n            b.winner = b.p1;\n            upgradeLevel(b.p1CarId);\n            b.p1.transfer(b.amount * 2);\n            b.ended = true;\n        } else {\n            b.p1.transfer(b.amount);\n            b.p2.transfer(b.amount);\n            b.ended = true;\n        }\n    }\n    \n    function upgradeLevel(uint _carId) internal {\n        Car storage c = cars[_carId];\n        if(c.level < 7) {\n            c.level++;\n            c.speed = c.level * 2 + 7;\n        }\n    }\n    \n    function cancelBattle (uint _battleId) public {\n        require(now > battles[_battleId].createdAt + 86400);\n        Battle storage b = battles[_battleId];\n        b.p1.transfer(b.amount);\n        b.ended = true;\n    }\n    \n    function getBattlesCount() public view returns(uint) {\n        return battles.length;\n    }\n}",
  "sourcePath": "/Users/mac/Documents/Project/John/BlockChain/Udemy/Ethereum/Crypto-Car-Battle/contracts/CarBattle.sol",
  "compiler": {
    "name": "solc",
    "version": "0.6.12+commit.27d51765.Emscripten.clang"
  },
  "schemaVersion": "3.4.3",
  "updatedAt": "2021-12-04T13:58:54.821Z",
  "networkType": "ethereum",
  "devdoc": {
    "kind": "dev",
    "methods": {
      "approve(address,uint256)": {
        "details": "See {IERC721-approve}."
      },
      "balanceOf(address)": {
        "details": "See {IERC721-balanceOf}."
      },
      "baseURI()": {
        "details": "Returns the base URI set via {_setBaseURI}. This will be automatically added as a prefix in {tokenURI} to each token's URI, or to the token ID if no specific URI is set for that token ID."
      },
      "getApproved(uint256)": {
        "details": "See {IERC721-getApproved}."
      },
      "isApprovedForAll(address,address)": {
        "details": "See {IERC721-isApprovedForAll}."
      },
      "name()": {
        "details": "See {IERC721Metadata-name}."
      },
      "ownerOf(uint256)": {
        "details": "See {IERC721-ownerOf}."
      },
      "safeTransferFrom(address,address,uint256)": {
        "details": "See {IERC721-safeTransferFrom}."
      },
      "safeTransferFrom(address,address,uint256,bytes)": {
        "details": "See {IERC721-safeTransferFrom}."
      },
      "setApprovalForAll(address,bool)": {
        "details": "See {IERC721-setApprovalForAll}."
      },
      "supportsInterface(bytes4)": {
        "details": "See {IERC165-supportsInterface}. Time complexity O(1), guaranteed to always use less than 30 000 gas."
      },
      "symbol()": {
        "details": "See {IERC721Metadata-symbol}."
      },
      "tokenByIndex(uint256)": {
        "details": "See {IERC721Enumerable-tokenByIndex}."
      },
      "tokenOfOwnerByIndex(address,uint256)": {
        "details": "See {IERC721Enumerable-tokenOfOwnerByIndex}."
      },
      "tokenURI(uint256)": {
        "details": "See {IERC721Metadata-tokenURI}."
      },
      "totalSupply()": {
        "details": "See {IERC721Enumerable-totalSupply}."
      },
      "transferFrom(address,address,uint256)": {
        "details": "See {IERC721-transferFrom}."
      }
    },
    "version": 1
  },
  "userdoc": {
    "kind": "user",
    "methods": {},
    "version": 1
  }
}